:100000004020002025010000210100002101000006
:1000100000000000000000000000000000000000E0
:1000200000000000000000000000000021010000AE
:10003000000000000000000021010000210100007C
:100040002101000021010000210100002101000028
:100050002101000021010000210100002101000018
:100060002101000021010000210100002101000008
:1000700021010000210100002101000021010000F8
:1000800021010000210100002101000021010000E8
:1000900021010000210100002101000021010000D8
:1000A00021010000210100002101000021010000C8
:1000B0000000000010B5064C2378002B07D1054B3B
:1000C000002B02D0044800E000BF0123237010BDC4
:1000D0000000002000000000AC0B0000084B10B531
:1000E000002B03D00749084800E000BF0748036819
:1000F000002B00D110BD064B002BFBD09847F9E731
:100100000000000004000020AC0B0000AC0B00005D
:100110000000000010B5014B984710BD9903000086
:10012000FEE70000F8B52A4A2A4B9A4211D01A007D
:10013000294B9A420DD2294A03339B1A9B0801335B
:100140009B000022234822498C58845004329A4252
:10015000FAD1234A234B9A420AD2D34321495B184E
:1001600003218B4304339B18002102C29342FCD12C
:100170001D4AFF211D4B8B439360FD3990235B008B
:100180001B4AD1501B4AD3780325AB430224234397
:10019000D370D3780C27BB4308263343D370164B58
:1001A000987B30229043202210439873997BB94367
:1001B000314399739A7BAA4322439A730F4A536837
:1001C00080210B4353600E4B98470E4B9847FEE738
:1001D000AC0B000000000020000000200400002004
:1001E000000000203C00002000ED00E000000000C6
:1001F00000700041005000410048004100400041B3
:10020000A50A0000690A000030B50E4B4422995C33
:100210000125A94301242143C9B299543220195C14
:10022000353A91430C3A1143195445215A5CAA437B
:100230002243D2B25A541A5C36390A4021310A4359
:100240001A5430BD00440041044A136A04210B4390
:100250001362034A034B5A807047C04600040040B3
:1002600014400000000C004010B5054B98470022D8
:1002700004490548054B9847054B984710BDC046B3
:10028000490200000008004230000020E1050000A3
:1002900009020000F0B5C64600B5C022D205802391
:1002A0005B0253619360254B8021C9058C4699629E
:1002B000234999625020195C0127B9430126314333
:1002C000C9B219543821585C0F25A8430224A0460E
:1002D00044462043C0B25854802080025061906050
:1002E000604698621748986251208446185CB8436B
:1002F0003043C0B264461855585C423C204011342B
:10030000204358548021C90251600F4A9A620F4A13
:100310009A625222995C042081439954995CB943B2
:100320003143C9B2995439215A5CAA434046024329
:10033000D2B25A5404BC9046F0BDC04600440041BD
:10034000010000C0020000C000000240040002C022
:10035000044A136A08210B431362034A034B5A8071
:100360007047C0460004004015400000000C0040EB
:1003700010B5044B984704490448054B9847054B72
:10038000984710BD51030000000C00421C000020E3
:10039000E90300009502000010B5034B9847034B9A
:1003A0009847034B984710BD8D0600006902000076
:1003B0007103000070B506000C00150000280DD078
:1003C0000800431E9841C0B234220549054B9847A6
:1003D00033682A0021003000984770BD0020F3E701
:1003E000EC0A00008506000070B504000D0000282E
:1003F00016D00800431E9841C0B2382209490A4B62
:100400009847256029002000084B9847002806DB04
:10041000074B2382074BE360074BA360002070BDAE
:100420000020EAE7000B0000850600000908000034
:100430000080FFFFC10400008504000030B587B0D4
:1004400004000D00002814D00800431E9841C0B2DB
:10045000B3220949094B98472B6803936B680493AF
:10046000AB680193059303A92000054B984707B09B
:1004700030BD0020ECE7C046000B00008506000000
:100480000109000070B584B004000E001500431E81
:100490009841C0B2A3220749074B98470023029313
:1004A000019603952000083801A9044B984704B031
:1004B00070BDC046000B0000850600003D04000032
:1004C00070B584B004000E001500431E9841C0B200
:1004D00087220749074B984702960023019303950B
:1004E0002000083801A9044B984704B070BDC046ED
:1004F000000B0000850600003D040000F8B5CE4664
:10050000474680B504000F009046002826D00029F9
:1005100026D01000431E9841F1221249124B9847F1
:100520000834124D2000A8470028FBD00026104BAD
:1005300099460E4DB95D2000C8472000A847002805
:10054000FBD001364645F5D30A4D2000A8470028C8
:10055000FBD030000CBC90469946F8BD0020DBE78C
:100560000020D9E71C0B000085060000E907000009
:10057000D9070000F3070000F8B5CE46474680B51E
:1005800004000F00904600281DD000291DD0100047
:10059000431E9841862252000D490E4B9847002673
:1005A00008340D4D0D4B99462000A8470028FBD07C
:1005B0002000C847B85501364645F5D330000CBC7D
:1005C00090469946F8BD0020E4E70020E2E7C046E7
:1005D0001C0B000085060000FD070000E10700007D
:1005E00070B505000C00002813D00800431E984188
:1005F000C0B234220849094B98472800083021002E
:10060000074B9847002803D1064B6B60064B2B60C5
:1006100070BD0020EDE7C0461C0B00008506000001
:100620009907000079050000FD04000010B50400E2
:10063000431E9841C0B253220449054B98472000FD
:100640000830044B9847002010BDC0461C0B00002A
:1006500085060000C507000070B504000D000028E5
:100660000AD00800431E9841C0B269220349044BD6
:1006700098472C60002070BD0020F6E71C0B00009E
:1006800085060000002800D100BE704710B5064B5B
:100690005A685A60054B9847054B9847054B984751
:1006A000FF20054B984710BD00400041DD060000CB
:1006B000110A0000590A0000BD060000C3070AD550
:1006C000054B802252009A60832252025A601A001F
:1006D0005378DB09FCD17047000C0040064B1A7AB6
:1006E000D2B21A725A7AD2B25A729A7AD2B29A7232
:1006F000DA7AD2B2DA7270470004004010B5040012
:100700001F4BC3189B0ADBB2002B04D01D4A1E49A5
:1007100000201E4B9847E369DB0718D40322E369E6
:100720001A42FCD123689B070BD52368022293430E
:1007300023600132E3691A42FCD10222E3691A42C2
:10074000FCD1052323600322E3691A42FCD1012274
:10075000E3691A42FCD10E4B23600322E3691A427B
:10076000FCD1C0239B0263600722E3691A42FCD1DB
:10077000084BA3810023A3733022A354002010BD93
:1007800000F8FFBD41020000380B000085060000A4
:1007900004001040ADD8FFFF70B505000C00431EEB
:1007A0009841C0B2B4220449044B98472C60200001
:1007B000034B984770BDC046380B0000850600000B
:1007C000FD0600000268136802210B43136001312B
:1007D000D3691942FCD17047036889B21985704703
:1007E0000368188DC0B270470368187E0123184053
:1007F00070470368187E8007C00F70470368187E33
:100800004007C00F7047000070B505000C00354B65
:10081000CB189B0ADBB2012B0BD0002851D0601EF5
:100820008441E0B2304A3149314B98470D20404273
:1008300046E000284DD12C4A2C4900202C4B9847EB
:10084000E369DB0718D40322E3691A42FCD1236869
:100850009B070BD523680222934323600132E3698F
:100860001A42FCD10222E3691A42FCD10D23236013
:100870000322E3691A42FCD10122E3691A42FCD146
:100880002C602000431E9841C0B21A4A1749184BE9
:100890009847194B23600322E3691A42FCD1802355
:1008A0009B0263600722E3691A42FCD10923237388
:1008B00000222733E2542F3B2B71104BEB8000209A
:1008C00070BD094A09490020094B98470D20404254
:1008D000F6E70800431E9841C0B2034A0349044B9F
:1008E0009847ADE700F8FFBD1F090000380B000076
:1008F00085060000E90800000C002000FF01000050
:10090000F0B5DE4657464E464546E0B583B08146D3
:100910000E0004680B6898464D680379019300281F
:1009200015D02000431E9841C0B2364A3649374B95
:100930009847E3695B073FD10323E0691840FCD186
:1009400023689B073BD5020001239C4609E0002059
:10095000EBE7013501325BB2002B16DBB368834253
:1009600027D9237EDBB2042119422BD0A76A002DA0
:10097000F0D02F7001990129EBD93F0A6F70023531
:10098000E8E701218B46D84437E001235B426383CB
:1009900081332376132040420322237E1342FCD06E
:1009A0000323237603B03CBC90469946A246AB464F
:1009B000F0BD9342D5D8EFE704204042F2E714207F
:1009C0004042EFE79042C6D867461F42C3D04F4629
:1009D000FF88BA464746002F0FD03F78BA460199A4
:1009E0000129CED947467F783F02BB465746594634
:1009F0000F43BA4602218B46D84401305746A762BE
:100A0000A9E7C0467F0A0000380B000085060000F9
:100A100010B50E4B1A6A186A0D491140800F8007F5
:100A20000C4C2043014319629969022001439961EA
:100A3000D202D20E1A7719000822CB681A42FCD0D3
:100A4000024A136A80210B43136210BD0008004064
:100A50000000FF0F02030000024A936902218B434A
:100A6000936170470008004010B582B0074B98476B
:100A7000074C01A92000074B98472000064B9847D8
:100A80000C2206490198064B9847FEE71501000025
:100A900030000020590600002D0600007C0B0000ED
:100AA000B503000070B500260C4D0D4C641BA4105E
:100AB000A64209D1002600F069F80A4D0A4C641BD1
:100AC000A410A64205D170BDB300EB58984701367B
:100AD000EEE7B300EB5898470136F2E7980B0000B9
:100AE000980B0000980B00009C0B00002E2E2F6826
:100AF000616C2F7372632F68616C5F696F2E630086
:100B00002E2E2F68616C2F7372632F68616C5F7378
:100B100070695F6D5F73796E632E63002E2E2F6890
:100B2000616C2F7372632F68616C5F75736172748F
:100B30005F73796E632E63002E2E2F68706C2F7397
:100B40006572636F6D2F68706C5F736572636F6D34
:100B50002E630000410000005031000025660000B7
:100B6000503200005131000051320000523100007B
:100B7000523200005343414E0000000048656C6C47
:100B80006F20576F726C642100000000F8B5C046FA
:100B9000F8BC08BC9E467047DD000000F8B5C046B2
:0C0BA000F8BC08BC9E467047B500000081
:00000001FF
